{
  "data": {
    "bytecode": {
      "linkReferences": {},
      "object": "608060405234801561001057600080fd5b5033600260006101000a81548173ffffffffffffffffffffffffffffffffffffffff021916908373ffffffffffffffffffffffffffffffffffffffff160217905550610d96806100616000396000f3fe608060405234801561001057600080fd5b50600436106100625760003560e01c8063111002aa146100675780631d65e77e14610083578063613137a4146100b55780638d977672146100d15780638da5cb5b14610103578063b6cb58a514610121575b600080fd5b610081600480360381019061007c9190610700565b61013f565b005b61009d6004803603810190610098919061077f565b61029f565b6040516100ac93929190610855565b60405180910390f35b6100cf60048036038101906100ca919061077f565b610399565b005b6100eb60048036038101906100e6919061077f565b6104bb565b6040516100fa93929190610855565b60405180910390f35b61010b61057a565b60405161011891906108d4565b60405180910390f35b6101296105a0565b60405161013691906108ef565b60405180910390f35b600260009054906101000a900473ffffffffffffffffffffffffffffffffffffffff1673ffffffffffffffffffffffffffffffffffffffff163373ffffffffffffffffffffffffffffffffffffffff16146101cf576040517f08c379a00000000000000000000000000000000000000000000000000000000081526004016101c690610956565b60405180910390fd5b600160008154809291906101e2906109a5565b91905055506040518060600160405280600154815260200182815260200160001515815250600080600154815260200190815260200160002060008201518160000155602082015181600101908161023a9190610bf9565b5060408201518160020160006101000a81548160ff0219169083151502179055509050507f05d0fb833127fc08168556d0e7ca9554fc3f6bc843b3b7d2bf1c35aea6bab66060015482600060405161029493929190610855565b60405180910390a150565b60006060600080600080868152602001908152602001600020604051806060016040529081600082015481526020016001820180546102dd90610a1c565b80601f016020809104026020016040519081016040528092919081815260200182805461030990610a1c565b80156103565780601f1061032b57610100808354040283529160200191610356565b820191906000526020600020905b81548152906001019060200180831161033957829003601f168201915b505050505081526020016002820160009054906101000a900460ff1615151515815250509050806000015181602001518260400151935093509350509193909250565b600260009054906101000a900473ffffffffffffffffffffffffffffffffffffffff1673ffffffffffffffffffffffffffffffffffffffff163373ffffffffffffffffffffffffffffffffffffffff1614610429576040517f08c379a000000000000000000000000000000000000000000000000000000000815260040161042090610d17565b60405180910390fd5b600080600083815260200190815260200160002090508060020160009054906101000a900460ff16158160020160006101000a81548160ff0219169083151502179055507fe21fa966ca5cd02748c0752352d18c48165e61cb55b4c29cccf924b5a95fcff1828260020160009054906101000a900460ff166040516104af929190610d37565b60405180910390a15050565b60006020528060005260406000206000915090508060000154908060010180546104e490610a1c565b80601f016020809104026020016040519081016040528092919081815260200182805461051090610a1c565b801561055d5780601f106105325761010080835404028352916020019161055d565b820191906000526020600020905b81548152906001019060200180831161054057829003601f168201915b5050505050908060020160009054906101000a900460ff16905083565b600260009054906101000a900473ffffffffffffffffffffffffffffffffffffffff1681565b60015481565b6000604051905090565b600080fd5b600080fd5b600080fd5b600080fd5b6000601f19601f8301169050919050565b7f4e487b7100000000000000000000000000000000000000000000000000000000600052604160045260246000fd5b61060d826105c4565b810181811067ffffffffffffffff8211171561062c5761062b6105d5565b5b80604052505050565b600061063f6105a6565b905061064b8282610604565b919050565b600067ffffffffffffffff82111561066b5761066a6105d5565b5b610674826105c4565b9050602081019050919050565b82818337600083830152505050565b60006106a361069e84610650565b610635565b9050828152602081018484840111156106bf576106be6105bf565b5b6106ca848285610681565b509392505050565b600082601f8301126106e7576106e66105ba565b5b81356106f7848260208601610690565b91505092915050565b600060208284031215610716576107156105b0565b5b600082013567ffffffffffffffff811115610734576107336105b5565b5b610740848285016106d2565b91505092915050565b6000819050919050565b61075c81610749565b811461076757600080fd5b50565b60008135905061077981610753565b92915050565b600060208284031215610795576107946105b0565b5b60006107a38482850161076a565b91505092915050565b6107b581610749565b82525050565b600081519050919050565b600082825260208201905092915050565b60005b838110156107f55780820151818401526020810190506107da565b60008484015250505050565b600061080c826107bb565b61081681856107c6565b93506108268185602086016107d7565b61082f816105c4565b840191505092915050565b60008115159050919050565b61084f8161083a565b82525050565b600060608201905061086a60008301866107ac565b818103602083015261087c8185610801565b905061088b6040830184610846565b949350505050565b600073ffffffffffffffffffffffffffffffffffffffff82169050919050565b60006108be82610893565b9050919050565b6108ce816108b3565b82525050565b60006020820190506108e960008301846108c5565b92915050565b600060208201905061090460008301846107ac565b92915050565b7f4f6e6c79206f776e65722063616e20616464207461736b730000000000000000600082015250565b60006109406018836107c6565b915061094b8261090a565b602082019050919050565b6000602082019050818103600083015261096f81610933565b9050919050565b7f4e487b7100000000000000000000000000000000000000000000000000000000600052601160045260246000fd5b60006109b082610749565b91507fffffffffffffffffffffffffffffffffffffffffffffffffffffffffffffffff82036109e2576109e1610976565b5b600182019050919050565b7f4e487b7100000000000000000000000000000000000000000000000000000000600052602260045260246000fd5b60006002820490506001821680610a3457607f821691505b602082108103610a4757610a466109ed565b5b50919050565b60008190508160005260206000209050919050565b60006020601f8301049050919050565b600082821b905092915050565b600060088302610aaf7fffffffffffffffffffffffffffffffffffffffffffffffffffffffffffffffff82610a72565b610ab98683610a72565b95508019841693508086168417925050509392505050565b6000819050919050565b6000610af6610af1610aec84610749565b610ad1565b610749565b9050919050565b6000819050919050565b610b1083610adb565b610b24610b1c82610afd565b848454610a7f565b825550505050565b600090565b610b39610b2c565b610b44818484610b07565b505050565b5b81811015610b6857610b5d600082610b31565b600181019050610b4a565b5050565b601f821115610bad57610b7e81610a4d565b610b8784610a62565b81016020851015610b96578190505b610baa610ba285610a62565b830182610b49565b50505b505050565b600082821c905092915050565b6000610bd060001984600802610bb2565b1980831691505092915050565b6000610be98383610bbf565b9150826002028217905092915050565b610c02826107bb565b67ffffffffffffffff811115610c1b57610c1a6105d5565b5b610c258254610a1c565b610c30828285610b6c565b600060209050601f831160018114610c635760008415610c51578287015190505b610c5b8582610bdd565b865550610cc3565b601f198416610c7186610a4d565b60005b82811015610c9957848901518255600182019150602085019450602081019050610c74565b86831015610cb65784890151610cb2601f891682610bbf565b8355505b6001600288020188555050505b505050505050565b7f4f6e6c79206f776e65722063616e20746f67676c65207461736b730000000000600082015250565b6000610d01601b836107c6565b9150610d0c82610ccb565b602082019050919050565b60006020820190508181036000830152610d3081610cf4565b9050919050565b6000604082019050610d4c60008301856107ac565b610d596020830184610846565b939250505056fea26469706673582212206a4a14b5737fda12580f1eba7bafa29069acc8389a57642def0e7ab7d3e6621a64736f6c63430008130033",
      "opcodes": "PUSH1 0x80 PUSH1 0x40 MSTORE CALLVALUE DUP1 ISZERO PUSH2 0x10 JUMPI PUSH1 0x0 DUP1 REVERT JUMPDEST POP CALLER PUSH1 0x2 PUSH1 0x0 PUSH2 0x100 EXP DUP2 SLOAD DUP2 PUSH20 0xFFFFFFFFFFFFFFFFFFFFFFFFFFFFFFFFFFFFFFFF MUL NOT AND SWAP1 DUP4 PUSH20 0xFFFFFFFFFFFFFFFFFFFFFFFFFFFFFFFFFFFFFFFF AND MUL OR SWAP1 SSTORE POP PUSH2 0xD96 DUP1 PUSH2 0x61 PUSH1 0x0 CODECOPY PUSH1 0x0 RETURN INVALID PUSH1 0x80 PUSH1 0x40 MSTORE CALLVALUE DUP1 ISZERO PUSH2 0x10 JUMPI PUSH1 0x0 DUP1 REVERT JUMPDEST POP PUSH1 0x4 CALLDATASIZE LT PUSH2 0x62 JUMPI PUSH1 0x0 CALLDATALOAD PUSH1 0xE0 SHR DUP1 PUSH4 0x111002AA EQ PUSH2 0x67 JUMPI DUP1 PUSH4 0x1D65E77E EQ PUSH2 0x83 JUMPI DUP1 PUSH4 0x613137A4 EQ PUSH2 0xB5 JUMPI DUP1 PUSH4 0x8D977672 EQ PUSH2 0xD1 JUMPI DUP1 PUSH4 0x8DA5CB5B EQ PUSH2 0x103 JUMPI DUP1 PUSH4 0xB6CB58A5 EQ PUSH2 0x121 JUMPI JUMPDEST PUSH1 0x0 DUP1 REVERT JUMPDEST PUSH2 0x81 PUSH1 0x4 DUP1 CALLDATASIZE SUB DUP2 ADD SWAP1 PUSH2 0x7C SWAP2 SWAP1 PUSH2 0x700 JUMP JUMPDEST PUSH2 0x13F JUMP JUMPDEST STOP JUMPDEST PUSH2 0x9D PUSH1 0x4 DUP1 CALLDATASIZE SUB DUP2 ADD SWAP1 PUSH2 0x98 SWAP2 SWAP1 PUSH2 0x77F JUMP JUMPDEST PUSH2 0x29F JUMP JUMPDEST PUSH1 0x40 MLOAD PUSH2 0xAC SWAP4 SWAP3 SWAP2 SWAP1 PUSH2 0x855 JUMP JUMPDEST PUSH1 0x40 MLOAD DUP1 SWAP2 SUB SWAP1 RETURN JUMPDEST PUSH2 0xCF PUSH1 0x4 DUP1 CALLDATASIZE SUB DUP2 ADD SWAP1 PUSH2 0xCA SWAP2 SWAP1 PUSH2 0x77F JUMP JUMPDEST PUSH2 0x399 JUMP JUMPDEST STOP JUMPDEST PUSH2 0xEB PUSH1 0x4 DUP1 CALLDATASIZE SUB DUP2 ADD SWAP1 PUSH2 0xE6 SWAP2 SWAP1 PUSH2 0x77F JUMP JUMPDEST PUSH2 0x4BB JUMP JUMPDEST PUSH1 0x40 MLOAD PUSH2 0xFA SWAP4 SWAP3 SWAP2 SWAP1 PUSH2 0x855 JUMP JUMPDEST PUSH1 0x40 MLOAD DUP1 SWAP2 SUB SWAP1 RETURN JUMPDEST PUSH2 0x10B PUSH2 0x57A JUMP JUMPDEST PUSH1 0x40 MLOAD PUSH2 0x118 SWAP2 SWAP1 PUSH2 0x8D4 JUMP JUMPDEST PUSH1 0x40 MLOAD DUP1 SWAP2 SUB SWAP1 RETURN JUMPDEST PUSH2 0x129 PUSH2 0x5A0 JUMP JUMPDEST PUSH1 0x40 MLOAD PUSH2 0x136 SWAP2 SWAP1 PUSH2 0x8EF JUMP JUMPDEST PUSH1 0x40 MLOAD DUP1 SWAP2 SUB SWAP1 RETURN JUMPDEST PUSH1 0x2 PUSH1 0x0 SWAP1 SLOAD SWAP1 PUSH2 0x100 EXP SWAP1 DIV PUSH20 0xFFFFFFFFFFFFFFFFFFFFFFFFFFFFFFFFFFFFFFFF AND PUSH20 0xFFFFFFFFFFFFFFFFFFFFFFFFFFFFFFFFFFFFFFFF AND CALLER PUSH20 0xFFFFFFFFFFFFFFFFFFFFFFFFFFFFFFFFFFFFFFFF AND EQ PUSH2 0x1CF JUMPI PUSH1 0x40 MLOAD PUSH32 0x8C379A000000000000000000000000000000000000000000000000000000000 DUP2 MSTORE PUSH1 0x4 ADD PUSH2 0x1C6 SWAP1 PUSH2 0x956 JUMP JUMPDEST PUSH1 0x40 MLOAD DUP1 SWAP2 SUB SWAP1 REVERT JUMPDEST PUSH1 0x1 PUSH1 0x0 DUP2 SLOAD DUP1 SWAP3 SWAP2 SWAP1 PUSH2 0x1E2 SWAP1 PUSH2 0x9A5 JUMP JUMPDEST SWAP2 SWAP1 POP SSTORE POP PUSH1 0x40 MLOAD DUP1 PUSH1 0x60 ADD PUSH1 0x40 MSTORE DUP1 PUSH1 0x1 SLOAD DUP2 MSTORE PUSH1 0x20 ADD DUP3 DUP2 MSTORE PUSH1 0x20 ADD PUSH1 0x0 ISZERO ISZERO DUP2 MSTORE POP PUSH1 0x0 DUP1 PUSH1 0x1 SLOAD DUP2 MSTORE PUSH1 0x20 ADD SWAP1 DUP2 MSTORE PUSH1 0x20 ADD PUSH1 0x0 KECCAK256 PUSH1 0x0 DUP3 ADD MLOAD DUP2 PUSH1 0x0 ADD SSTORE PUSH1 0x20 DUP3 ADD MLOAD DUP2 PUSH1 0x1 ADD SWAP1 DUP2 PUSH2 0x23A SWAP2 SWAP1 PUSH2 0xBF9 JUMP JUMPDEST POP PUSH1 0x40 DUP3 ADD MLOAD DUP2 PUSH1 0x2 ADD PUSH1 0x0 PUSH2 0x100 EXP DUP2 SLOAD DUP2 PUSH1 0xFF MUL NOT AND SWAP1 DUP4 ISZERO ISZERO MUL OR SWAP1 SSTORE POP SWAP1 POP POP PUSH32 0x5D0FB833127FC08168556D0E7CA9554FC3F6BC843B3B7D2BF1C35AEA6BAB660 PUSH1 0x1 SLOAD DUP3 PUSH1 0x0 PUSH1 0x40 MLOAD PUSH2 0x294 SWAP4 SWAP3 SWAP2 SWAP1 PUSH2 0x855 JUMP JUMPDEST PUSH1 0x40 MLOAD DUP1 SWAP2 SUB SWAP1 LOG1 POP JUMP JUMPDEST PUSH1 0x0 PUSH1 0x60 PUSH1 0x0 DUP1 PUSH1 0x0 DUP1 DUP7 DUP2 MSTORE PUSH1 0x20 ADD SWAP1 DUP2 MSTORE PUSH1 0x20 ADD PUSH1 0x0 KECCAK256 PUSH1 0x40 MLOAD DUP1 PUSH1 0x60 ADD PUSH1 0x40 MSTORE SWAP1 DUP2 PUSH1 0x0 DUP3 ADD SLOAD DUP2 MSTORE PUSH1 0x20 ADD PUSH1 0x1 DUP3 ADD DUP1 SLOAD PUSH2 0x2DD SWAP1 PUSH2 0xA1C JUMP JUMPDEST DUP1 PUSH1 0x1F ADD PUSH1 0x20 DUP1 SWAP2 DIV MUL PUSH1 0x20 ADD PUSH1 0x40 MLOAD SWAP1 DUP2 ADD PUSH1 0x40 MSTORE DUP1 SWAP3 SWAP2 SWAP1 DUP2 DUP2 MSTORE PUSH1 0x20 ADD DUP3 DUP1 SLOAD PUSH2 0x309 SWAP1 PUSH2 0xA1C JUMP JUMPDEST DUP1 ISZERO PUSH2 0x356 JUMPI DUP1 PUSH1 0x1F LT PUSH2 0x32B JUMPI PUSH2 0x100 DUP1 DUP4 SLOAD DIV MUL DUP4 MSTORE SWAP2 PUSH1 0x20 ADD SWAP2 PUSH2 0x356 JUMP JUMPDEST DUP3 ADD SWAP2 SWAP1 PUSH1 0x0 MSTORE PUSH1 0x20 PUSH1 0x0 KECCAK256 SWAP1 JUMPDEST DUP2 SLOAD DUP2 MSTORE SWAP1 PUSH1 0x1 ADD SWAP1 PUSH1 0x20 ADD DUP1 DUP4 GT PUSH2 0x339 JUMPI DUP3 SWAP1 SUB PUSH1 0x1F AND DUP3 ADD SWAP2 JUMPDEST POP POP POP POP POP DUP2 MSTORE PUSH1 0x20 ADD PUSH1 0x2 DUP3 ADD PUSH1 0x0 SWAP1 SLOAD SWAP1 PUSH2 0x100 EXP SWAP1 DIV PUSH1 0xFF AND ISZERO ISZERO ISZERO ISZERO DUP2 MSTORE POP POP SWAP1 POP DUP1 PUSH1 0x0 ADD MLOAD DUP2 PUSH1 0x20 ADD MLOAD DUP3 PUSH1 0x40 ADD MLOAD SWAP4 POP SWAP4 POP SWAP4 POP POP SWAP2 SWAP4 SWAP1 SWAP3 POP JUMP JUMPDEST PUSH1 0x2 PUSH1 0x0 SWAP1 SLOAD SWAP1 PUSH2 0x100 EXP SWAP1 DIV PUSH20 0xFFFFFFFFFFFFFFFFFFFFFFFFFFFFFFFFFFFFFFFF AND PUSH20 0xFFFFFFFFFFFFFFFFFFFFFFFFFFFFFFFFFFFFFFFF AND CALLER PUSH20 0xFFFFFFFFFFFFFFFFFFFFFFFFFFFFFFFFFFFFFFFF AND EQ PUSH2 0x429 JUMPI PUSH1 0x40 MLOAD PUSH32 0x8C379A000000000000000000000000000000000000000000000000000000000 DUP2 MSTORE PUSH1 0x4 ADD PUSH2 0x420 SWAP1 PUSH2 0xD17 JUMP JUMPDEST PUSH1 0x40 MLOAD DUP1 SWAP2 SUB SWAP1 REVERT JUMPDEST PUSH1 0x0 DUP1 PUSH1 0x0 DUP4 DUP2 MSTORE PUSH1 0x20 ADD SWAP1 DUP2 MSTORE PUSH1 0x20 ADD PUSH1 0x0 KECCAK256 SWAP1 POP DUP1 PUSH1 0x2 ADD PUSH1 0x0 SWAP1 SLOAD SWAP1 PUSH2 0x100 EXP SWAP1 DIV PUSH1 0xFF AND ISZERO DUP2 PUSH1 0x2 ADD PUSH1 0x0 PUSH2 0x100 EXP DUP2 SLOAD DUP2 PUSH1 0xFF MUL NOT AND SWAP1 DUP4 ISZERO ISZERO MUL OR SWAP1 SSTORE POP PUSH32 0xE21FA966CA5CD02748C0752352D18C48165E61CB55B4C29CCCF924B5A95FCFF1 DUP3 DUP3 PUSH1 0x2 ADD PUSH1 0x0 SWAP1 SLOAD SWAP1 PUSH2 0x100 EXP SWAP1 DIV PUSH1 0xFF AND PUSH1 0x40 MLOAD PUSH2 0x4AF SWAP3 SWAP2 SWAP1 PUSH2 0xD37 JUMP JUMPDEST PUSH1 0x40 MLOAD DUP1 SWAP2 SUB SWAP1 LOG1 POP POP JUMP JUMPDEST PUSH1 0x0 PUSH1 0x20 MSTORE DUP1 PUSH1 0x0 MSTORE PUSH1 0x40 PUSH1 0x0 KECCAK256 PUSH1 0x0 SWAP2 POP SWAP1 POP DUP1 PUSH1 0x0 ADD SLOAD SWAP1 DUP1 PUSH1 0x1 ADD DUP1 SLOAD PUSH2 0x4E4 SWAP1 PUSH2 0xA1C JUMP JUMPDEST DUP1 PUSH1 0x1F ADD PUSH1 0x20 DUP1 SWAP2 DIV MUL PUSH1 0x20 ADD PUSH1 0x40 MLOAD SWAP1 DUP2 ADD PUSH1 0x40 MSTORE DUP1 SWAP3 SWAP2 SWAP1 DUP2 DUP2 MSTORE PUSH1 0x20 ADD DUP3 DUP1 SLOAD PUSH2 0x510 SWAP1 PUSH2 0xA1C JUMP JUMPDEST DUP1 ISZERO PUSH2 0x55D JUMPI DUP1 PUSH1 0x1F LT PUSH2 0x532 JUMPI PUSH2 0x100 DUP1 DUP4 SLOAD DIV MUL DUP4 MSTORE SWAP2 PUSH1 0x20 ADD SWAP2 PUSH2 0x55D JUMP JUMPDEST DUP3 ADD SWAP2 SWAP1 PUSH1 0x0 MSTORE PUSH1 0x20 PUSH1 0x0 KECCAK256 SWAP1 JUMPDEST DUP2 SLOAD DUP2 MSTORE SWAP1 PUSH1 0x1 ADD SWAP1 PUSH1 0x20 ADD DUP1 DUP4 GT PUSH2 0x540 JUMPI DUP3 SWAP1 SUB PUSH1 0x1F AND DUP3 ADD SWAP2 JUMPDEST POP POP POP POP POP SWAP1 DUP1 PUSH1 0x2 ADD PUSH1 0x0 SWAP1 SLOAD SWAP1 PUSH2 0x100 EXP SWAP1 DIV PUSH1 0xFF AND SWAP1 POP DUP4 JUMP JUMPDEST PUSH1 0x2 PUSH1 0x0 SWAP1 SLOAD SWAP1 PUSH2 0x100 EXP SWAP1 DIV PUSH20 0xFFFFFFFFFFFFFFFFFFFFFFFFFFFFFFFFFFFFFFFF AND DUP2 JUMP JUMPDEST PUSH1 0x1 SLOAD DUP2 JUMP JUMPDEST PUSH1 0x0 PUSH1 0x40 MLOAD SWAP1 POP SWAP1 JUMP JUMPDEST PUSH1 0x0 DUP1 REVERT JUMPDEST PUSH1 0x0 DUP1 REVERT JUMPDEST PUSH1 0x0 DUP1 REVERT JUMPDEST PUSH1 0x0 DUP1 REVERT JUMPDEST PUSH1 0x0 PUSH1 0x1F NOT PUSH1 0x1F DUP4 ADD AND SWAP1 POP SWAP2 SWAP1 POP JUMP JUMPDEST PUSH32 0x4E487B7100000000000000000000000000000000000000000000000000000000 PUSH1 0x0 MSTORE PUSH1 0x41 PUSH1 0x4 MSTORE PUSH1 0x24 PUSH1 0x0 REVERT JUMPDEST PUSH2 0x60D DUP3 PUSH2 0x5C4 JUMP JUMPDEST DUP2 ADD DUP2 DUP2 LT PUSH8 0xFFFFFFFFFFFFFFFF DUP3 GT OR ISZERO PUSH2 0x62C JUMPI PUSH2 0x62B PUSH2 0x5D5 JUMP JUMPDEST JUMPDEST DUP1 PUSH1 0x40 MSTORE POP POP POP JUMP JUMPDEST PUSH1 0x0 PUSH2 0x63F PUSH2 0x5A6 JUMP JUMPDEST SWAP1 POP PUSH2 0x64B DUP3 DUP3 PUSH2 0x604 JUMP JUMPDEST SWAP2 SWAP1 POP JUMP JUMPDEST PUSH1 0x0 PUSH8 0xFFFFFFFFFFFFFFFF DUP3 GT ISZERO PUSH2 0x66B JUMPI PUSH2 0x66A PUSH2 0x5D5 JUMP JUMPDEST JUMPDEST PUSH2 0x674 DUP3 PUSH2 0x5C4 JUMP JUMPDEST SWAP1 POP PUSH1 0x20 DUP2 ADD SWAP1 POP SWAP2 SWAP1 POP JUMP JUMPDEST DUP3 DUP2 DUP4 CALLDATACOPY PUSH1 0x0 DUP4 DUP4 ADD MSTORE POP POP POP JUMP JUMPDEST PUSH1 0x0 PUSH2 0x6A3 PUSH2 0x69E DUP5 PUSH2 0x650 JUMP JUMPDEST PUSH2 0x635 JUMP JUMPDEST SWAP1 POP DUP3 DUP2 MSTORE PUSH1 0x20 DUP2 ADD DUP5 DUP5 DUP5 ADD GT ISZERO PUSH2 0x6BF JUMPI PUSH2 0x6BE PUSH2 0x5BF JUMP JUMPDEST JUMPDEST PUSH2 0x6CA DUP5 DUP3 DUP6 PUSH2 0x681 JUMP JUMPDEST POP SWAP4 SWAP3 POP POP POP JUMP JUMPDEST PUSH1 0x0 DUP3 PUSH1 0x1F DUP4 ADD SLT PUSH2 0x6E7 JUMPI PUSH2 0x6E6 PUSH2 0x5BA JUMP JUMPDEST JUMPDEST DUP2 CALLDATALOAD PUSH2 0x6F7 DUP5 DUP3 PUSH1 0x20 DUP7 ADD PUSH2 0x690 JUMP JUMPDEST SWAP2 POP POP SWAP3 SWAP2 POP POP JUMP JUMPDEST PUSH1 0x0 PUSH1 0x20 DUP3 DUP5 SUB SLT ISZERO PUSH2 0x716 JUMPI PUSH2 0x715 PUSH2 0x5B0 JUMP JUMPDEST JUMPDEST PUSH1 0x0 DUP3 ADD CALLDATALOAD PUSH8 0xFFFFFFFFFFFFFFFF DUP2 GT ISZERO PUSH2 0x734 JUMPI PUSH2 0x733 PUSH2 0x5B5 JUMP JUMPDEST JUMPDEST PUSH2 0x740 DUP5 DUP3 DUP6 ADD PUSH2 0x6D2 JUMP JUMPDEST SWAP2 POP POP SWAP3 SWAP2 POP POP JUMP JUMPDEST PUSH1 0x0 DUP2 SWAP1 POP SWAP2 SWAP1 POP JUMP JUMPDEST PUSH2 0x75C DUP2 PUSH2 0x749 JUMP JUMPDEST DUP2 EQ PUSH2 0x767 JUMPI PUSH1 0x0 DUP1 REVERT JUMPDEST POP JUMP JUMPDEST PUSH1 0x0 DUP2 CALLDATALOAD SWAP1 POP PUSH2 0x779 DUP2 PUSH2 0x753 JUMP JUMPDEST SWAP3 SWAP2 POP POP JUMP JUMPDEST PUSH1 0x0 PUSH1 0x20 DUP3 DUP5 SUB SLT ISZERO PUSH2 0x795 JUMPI PUSH2 0x794 PUSH2 0x5B0 JUMP JUMPDEST JUMPDEST PUSH1 0x0 PUSH2 0x7A3 DUP5 DUP3 DUP6 ADD PUSH2 0x76A JUMP JUMPDEST SWAP2 POP POP SWAP3 SWAP2 POP POP JUMP JUMPDEST PUSH2 0x7B5 DUP2 PUSH2 0x749 JUMP JUMPDEST DUP3 MSTORE POP POP JUMP JUMPDEST PUSH1 0x0 DUP2 MLOAD SWAP1 POP SWAP2 SWAP1 POP JUMP JUMPDEST PUSH1 0x0 DUP3 DUP3 MSTORE PUSH1 0x20 DUP3 ADD SWAP1 POP SWAP3 SWAP2 POP POP JUMP JUMPDEST PUSH1 0x0 JUMPDEST DUP4 DUP2 LT ISZERO PUSH2 0x7F5 JUMPI DUP1 DUP3 ADD MLOAD DUP2 DUP5 ADD MSTORE PUSH1 0x20 DUP2 ADD SWAP1 POP PUSH2 0x7DA JUMP JUMPDEST PUSH1 0x0 DUP5 DUP5 ADD MSTORE POP POP POP POP JUMP JUMPDEST PUSH1 0x0 PUSH2 0x80C DUP3 PUSH2 0x7BB JUMP JUMPDEST PUSH2 0x816 DUP2 DUP6 PUSH2 0x7C6 JUMP JUMPDEST SWAP4 POP PUSH2 0x826 DUP2 DUP6 PUSH1 0x20 DUP7 ADD PUSH2 0x7D7 JUMP JUMPDEST PUSH2 0x82F DUP2 PUSH2 0x5C4 JUMP JUMPDEST DUP5 ADD SWAP2 POP POP SWAP3 SWAP2 POP POP JUMP JUMPDEST PUSH1 0x0 DUP2 ISZERO ISZERO SWAP1 POP SWAP2 SWAP1 POP JUMP JUMPDEST PUSH2 0x84F DUP2 PUSH2 0x83A JUMP JUMPDEST DUP3 MSTORE POP POP JUMP JUMPDEST PUSH1 0x0 PUSH1 0x60 DUP3 ADD SWAP1 POP PUSH2 0x86A PUSH1 0x0 DUP4 ADD DUP7 PUSH2 0x7AC JUMP JUMPDEST DUP2 DUP2 SUB PUSH1 0x20 DUP4 ADD MSTORE PUSH2 0x87C DUP2 DUP6 PUSH2 0x801 JUMP JUMPDEST SWAP1 POP PUSH2 0x88B PUSH1 0x40 DUP4 ADD DUP5 PUSH2 0x846 JUMP JUMPDEST SWAP5 SWAP4 POP POP POP POP JUMP JUMPDEST PUSH1 0x0 PUSH20 0xFFFFFFFFFFFFFFFFFFFFFFFFFFFFFFFFFFFFFFFF DUP3 AND SWAP1 POP SWAP2 SWAP1 POP JUMP JUMPDEST PUSH1 0x0 PUSH2 0x8BE DUP3 PUSH2 0x893 JUMP JUMPDEST SWAP1 POP SWAP2 SWAP1 POP JUMP JUMPDEST PUSH2 0x8CE DUP2 PUSH2 0x8B3 JUMP JUMPDEST DUP3 MSTORE POP POP JUMP JUMPDEST PUSH1 0x0 PUSH1 0x20 DUP3 ADD SWAP1 POP PUSH2 0x8E9 PUSH1 0x0 DUP4 ADD DUP5 PUSH2 0x8C5 JUMP JUMPDEST SWAP3 SWAP2 POP POP JUMP JUMPDEST PUSH1 0x0 PUSH1 0x20 DUP3 ADD SWAP1 POP PUSH2 0x904 PUSH1 0x0 DUP4 ADD DUP5 PUSH2 0x7AC JUMP JUMPDEST SWAP3 SWAP2 POP POP JUMP JUMPDEST PUSH32 0x4F6E6C79206F776E65722063616E20616464207461736B730000000000000000 PUSH1 0x0 DUP3 ADD MSTORE POP JUMP JUMPDEST PUSH1 0x0 PUSH2 0x940 PUSH1 0x18 DUP4 PUSH2 0x7C6 JUMP JUMPDEST SWAP2 POP PUSH2 0x94B DUP3 PUSH2 0x90A JUMP JUMPDEST PUSH1 0x20 DUP3 ADD SWAP1 POP SWAP2 SWAP1 POP JUMP JUMPDEST PUSH1 0x0 PUSH1 0x20 DUP3 ADD SWAP1 POP DUP2 DUP2 SUB PUSH1 0x0 DUP4 ADD MSTORE PUSH2 0x96F DUP2 PUSH2 0x933 JUMP JUMPDEST SWAP1 POP SWAP2 SWAP1 POP JUMP JUMPDEST PUSH32 0x4E487B7100000000000000000000000000000000000000000000000000000000 PUSH1 0x0 MSTORE PUSH1 0x11 PUSH1 0x4 MSTORE PUSH1 0x24 PUSH1 0x0 REVERT JUMPDEST PUSH1 0x0 PUSH2 0x9B0 DUP3 PUSH2 0x749 JUMP JUMPDEST SWAP2 POP PUSH32 0xFFFFFFFFFFFFFFFFFFFFFFFFFFFFFFFFFFFFFFFFFFFFFFFFFFFFFFFFFFFFFFFF DUP3 SUB PUSH2 0x9E2 JUMPI PUSH2 0x9E1 PUSH2 0x976 JUMP JUMPDEST JUMPDEST PUSH1 0x1 DUP3 ADD SWAP1 POP SWAP2 SWAP1 POP JUMP JUMPDEST PUSH32 0x4E487B7100000000000000000000000000000000000000000000000000000000 PUSH1 0x0 MSTORE PUSH1 0x22 PUSH1 0x4 MSTORE PUSH1 0x24 PUSH1 0x0 REVERT JUMPDEST PUSH1 0x0 PUSH1 0x2 DUP3 DIV SWAP1 POP PUSH1 0x1 DUP3 AND DUP1 PUSH2 0xA34 JUMPI PUSH1 0x7F DUP3 AND SWAP2 POP JUMPDEST PUSH1 0x20 DUP3 LT DUP2 SUB PUSH2 0xA47 JUMPI PUSH2 0xA46 PUSH2 0x9ED JUMP JUMPDEST JUMPDEST POP SWAP2 SWAP1 POP JUMP JUMPDEST PUSH1 0x0 DUP2 SWAP1 POP DUP2 PUSH1 0x0 MSTORE PUSH1 0x20 PUSH1 0x0 KECCAK256 SWAP1 POP SWAP2 SWAP1 POP JUMP JUMPDEST PUSH1 0x0 PUSH1 0x20 PUSH1 0x1F DUP4 ADD DIV SWAP1 POP SWAP2 SWAP1 POP JUMP JUMPDEST PUSH1 0x0 DUP3 DUP3 SHL SWAP1 POP SWAP3 SWAP2 POP POP JUMP JUMPDEST PUSH1 0x0 PUSH1 0x8 DUP4 MUL PUSH2 0xAAF PUSH32 0xFFFFFFFFFFFFFFFFFFFFFFFFFFFFFFFFFFFFFFFFFFFFFFFFFFFFFFFFFFFFFFFF DUP3 PUSH2 0xA72 JUMP JUMPDEST PUSH2 0xAB9 DUP7 DUP4 PUSH2 0xA72 JUMP JUMPDEST SWAP6 POP DUP1 NOT DUP5 AND SWAP4 POP DUP1 DUP7 AND DUP5 OR SWAP3 POP POP POP SWAP4 SWAP3 POP POP POP JUMP JUMPDEST PUSH1 0x0 DUP2 SWAP1 POP SWAP2 SWAP1 POP JUMP JUMPDEST PUSH1 0x0 PUSH2 0xAF6 PUSH2 0xAF1 PUSH2 0xAEC DUP5 PUSH2 0x749 JUMP JUMPDEST PUSH2 0xAD1 JUMP JUMPDEST PUSH2 0x749 JUMP JUMPDEST SWAP1 POP SWAP2 SWAP1 POP JUMP JUMPDEST PUSH1 0x0 DUP2 SWAP1 POP SWAP2 SWAP1 POP JUMP JUMPDEST PUSH2 0xB10 DUP4 PUSH2 0xADB JUMP JUMPDEST PUSH2 0xB24 PUSH2 0xB1C DUP3 PUSH2 0xAFD JUMP JUMPDEST DUP5 DUP5 SLOAD PUSH2 0xA7F JUMP JUMPDEST DUP3 SSTORE POP POP POP POP JUMP JUMPDEST PUSH1 0x0 SWAP1 JUMP JUMPDEST PUSH2 0xB39 PUSH2 0xB2C JUMP JUMPDEST PUSH2 0xB44 DUP2 DUP5 DUP5 PUSH2 0xB07 JUMP JUMPDEST POP POP POP JUMP JUMPDEST JUMPDEST DUP2 DUP2 LT ISZERO PUSH2 0xB68 JUMPI PUSH2 0xB5D PUSH1 0x0 DUP3 PUSH2 0xB31 JUMP JUMPDEST PUSH1 0x1 DUP2 ADD SWAP1 POP PUSH2 0xB4A JUMP JUMPDEST POP POP JUMP JUMPDEST PUSH1 0x1F DUP3 GT ISZERO PUSH2 0xBAD JUMPI PUSH2 0xB7E DUP2 PUSH2 0xA4D JUMP JUMPDEST PUSH2 0xB87 DUP5 PUSH2 0xA62 JUMP JUMPDEST DUP2 ADD PUSH1 0x20 DUP6 LT ISZERO PUSH2 0xB96 JUMPI DUP2 SWAP1 POP JUMPDEST PUSH2 0xBAA PUSH2 0xBA2 DUP6 PUSH2 0xA62 JUMP JUMPDEST DUP4 ADD DUP3 PUSH2 0xB49 JUMP JUMPDEST POP POP JUMPDEST POP POP POP JUMP JUMPDEST PUSH1 0x0 DUP3 DUP3 SHR SWAP1 POP SWAP3 SWAP2 POP POP JUMP JUMPDEST PUSH1 0x0 PUSH2 0xBD0 PUSH1 0x0 NOT DUP5 PUSH1 0x8 MUL PUSH2 0xBB2 JUMP JUMPDEST NOT DUP1 DUP4 AND SWAP2 POP POP SWAP3 SWAP2 POP POP JUMP JUMPDEST PUSH1 0x0 PUSH2 0xBE9 DUP4 DUP4 PUSH2 0xBBF JUMP JUMPDEST SWAP2 POP DUP3 PUSH1 0x2 MUL DUP3 OR SWAP1 POP SWAP3 SWAP2 POP POP JUMP JUMPDEST PUSH2 0xC02 DUP3 PUSH2 0x7BB JUMP JUMPDEST PUSH8 0xFFFFFFFFFFFFFFFF DUP2 GT ISZERO PUSH2 0xC1B JUMPI PUSH2 0xC1A PUSH2 0x5D5 JUMP JUMPDEST JUMPDEST PUSH2 0xC25 DUP3 SLOAD PUSH2 0xA1C JUMP JUMPDEST PUSH2 0xC30 DUP3 DUP3 DUP6 PUSH2 0xB6C JUMP JUMPDEST PUSH1 0x0 PUSH1 0x20 SWAP1 POP PUSH1 0x1F DUP4 GT PUSH1 0x1 DUP2 EQ PUSH2 0xC63 JUMPI PUSH1 0x0 DUP5 ISZERO PUSH2 0xC51 JUMPI DUP3 DUP8 ADD MLOAD SWAP1 POP JUMPDEST PUSH2 0xC5B DUP6 DUP3 PUSH2 0xBDD JUMP JUMPDEST DUP7 SSTORE POP PUSH2 0xCC3 JUMP JUMPDEST PUSH1 0x1F NOT DUP5 AND PUSH2 0xC71 DUP7 PUSH2 0xA4D JUMP JUMPDEST PUSH1 0x0 JUMPDEST DUP3 DUP2 LT ISZERO PUSH2 0xC99 JUMPI DUP5 DUP10 ADD MLOAD DUP3 SSTORE PUSH1 0x1 DUP3 ADD SWAP2 POP PUSH1 0x20 DUP6 ADD SWAP5 POP PUSH1 0x20 DUP2 ADD SWAP1 POP PUSH2 0xC74 JUMP JUMPDEST DUP7 DUP4 LT ISZERO PUSH2 0xCB6 JUMPI DUP5 DUP10 ADD MLOAD PUSH2 0xCB2 PUSH1 0x1F DUP10 AND DUP3 PUSH2 0xBBF JUMP JUMPDEST DUP4 SSTORE POP JUMPDEST PUSH1 0x1 PUSH1 0x2 DUP9 MUL ADD DUP9 SSTORE POP POP POP JUMPDEST POP POP POP POP POP POP JUMP JUMPDEST PUSH32 0x4F6E6C79206F776E65722063616E20746F67676C65207461736B730000000000 PUSH1 0x0 DUP3 ADD MSTORE POP JUMP JUMPDEST PUSH1 0x0 PUSH2 0xD01 PUSH1 0x1B DUP4 PUSH2 0x7C6 JUMP JUMPDEST SWAP2 POP PUSH2 0xD0C DUP3 PUSH2 0xCCB JUMP JUMPDEST PUSH1 0x20 DUP3 ADD SWAP1 POP SWAP2 SWAP1 POP JUMP JUMPDEST PUSH1 0x0 PUSH1 0x20 DUP3 ADD SWAP1 POP DUP2 DUP2 SUB PUSH1 0x0 DUP4 ADD MSTORE PUSH2 0xD30 DUP2 PUSH2 0xCF4 JUMP JUMPDEST SWAP1 POP SWAP2 SWAP1 POP JUMP JUMPDEST PUSH1 0x0 PUSH1 0x40 DUP3 ADD SWAP1 POP PUSH2 0xD4C PUSH1 0x0 DUP4 ADD DUP6 PUSH2 0x7AC JUMP JUMPDEST PUSH2 0xD59 PUSH1 0x20 DUP4 ADD DUP5 PUSH2 0x846 JUMP JUMPDEST SWAP4 SWAP3 POP POP POP JUMP INVALID LOG2 PUSH5 0x6970667358 0x22 SLT KECCAK256 PUSH11 0x4A14B5737FDA12580F1EBA PUSH28 0xAFA29069ACC8389A57642DEF0E7AB7D3E6621A64736F6C6343000813 STOP CALLER "
    },
    "gasEstimates": {
      "creation": {
        "codeDepositCost": "695600",
        "executionCost": "24994",
        "totalCost": "720594"
      },
      "external": {
        "createTask(string)": "infinite",
        "getTask(uint256)": "infinite",
        "owner()": "2580",
        "taskCount()": "2517",
        "tasks(uint256)": "infinite",
        "toggleTask(uint256)": "infinite"
      }
    },
    "methodIdentifiers": {
      "createTask(string)": "111002aa",
      "getTask(uint256)": "1d65e77e",
      "owner()": "8da5cb5b",
      "taskCount()": "b6cb58a5",
      "tasks(uint256)": "8d977672",
      "toggleTask(uint256)": "613137a4"
    }
  },
  "abi": [
    {
      "inputs": [],
      "stateMutability": "nonpayable",
      "type": "constructor"
    },
    {
      "anonymous": false,
      "inputs": [
        {
          "indexed": false,
          "internalType": "uint256",
          "name": "id",
          "type": "uint256"
        },
        {
          "indexed": false,
          "internalType": "bool",
          "name": "completed",
          "type": "bool"
        }
      ],
      "name": "TaskCompleted",
      "type": "event"
    },
    {
      "anonymous": false,
      "inputs": [
        {
          "indexed": false,
          "internalType": "uint256",
          "name": "id",
          "type": "uint256"
        },
        {
          "indexed": false,
          "internalType": "string",
          "name": "content",
          "type": "string"
        },
        {
          "indexed": false,
          "internalType": "bool",
          "name": "completed",
          "type": "bool"
        }
      ],
      "name": "TaskCreated",
      "type": "event"
    },
    {
      "inputs": [
        {
          "internalType": "string",
          "name": "_content",
          "type": "string"
        }
      ],
      "name": "createTask",
      "outputs": [],
      "stateMutability": "nonpayable",
      "type": "function"
    },
    {
      "inputs": [
        {
          "internalType": "uint256",
          "name": "_id",
          "type": "uint256"
        }
      ],
      "name": "getTask",
      "outputs": [
        {
          "internalType": "uint256",
          "name": "",
          "type": "uint256"
        },
        {
          "internalType": "string",
          "name": "",
          "type": "string"
        },
        {
          "internalType": "bool",
          "name": "",
          "type": "bool"
        }
      ],
      "stateMutability": "view",
      "type": "function"
    },
    {
      "inputs": [],
      "name": "owner",
      "outputs": [
        {
          "internalType": "address",
          "name": "",
          "type": "address"
        }
      ],
      "stateMutability": "view",
      "type": "function"
    },
    {
      "inputs": [],
      "name": "taskCount",
      "outputs": [
        {
          "internalType": "uint256",
          "name": "",
          "type": "uint256"
        }
      ],
      "stateMutability": "view",
      "type": "function"
    },
    {
      "inputs": [
        {
          "internalType": "uint256",
          "name": "",
          "type": "uint256"
        }
      ],
      "name": "tasks",
      "outputs": [
        {
          "internalType": "uint256",
          "name": "id",
          "type": "uint256"
        },
        {
          "internalType": "string",
          "name": "content",
          "type": "string"
        },
        {
          "internalType": "bool",
          "name": "completed",
          "type": "bool"
        }
      ],
      "stateMutability": "view",
      "type": "function"
    },
    {
      "inputs": [
        {
          "internalType": "uint256",
          "name": "_id",
          "type": "uint256"
        }
      ],
      "name": "toggleTask",
      "outputs": [],
      "stateMutability": "nonpayable",
      "type": "function"
    }
  ]
}